:100000000C944A000C9467000C9467000C946700F1
:100010000C9467000C9467000C9467000C946700C4
:100020000C9467000C9467000C9467000C946700B4
:100030000C9467000C9467000C9467000C946700A4
:100040000C947C020C9467000C9467000C9467007D
:100050000C9499000C94C5000C9467000C946700F4
:100060000C9467000C9467000C9467000C94670074
:100070000C9477010C94A3010C9467005072657383
:100080007375726520426F6172640D0A0076407666
:100090004076400011241FBECFEFD8E0DEBFCDBFB9
:1000A00011E0A0E0B1E0EAEFF8E002C005900D92A7
:1000B000A030B107D9F711E0A0E0B1E001C01D9276
:1000C000A639B107E1F70E9491000C947B040C94CF
:1000D000000088E10FB6F8948093600010926000F1
:1000E0000FBE8FE090E00E94EF008BB18F798BB94B
:1000F0008CE790E00E945A0178940E9452020E947C
:10010000F30229E288E190E00FB6F894A895809375
:1001100060000FBE209360000E940F030E941B042A
:1001200008950E9469000E940F03A8950E942A0466
:10013000FCCF1F920F920FB60F9211242F938F9323
:100140009F93EF93FF939091C0002091C600E091A0
:100150004201EF5FEF7180914301E81711F482E0F3
:1001600008C0892F8871E0934201F0E0E05EFE4F05
:10017000208380934401FF91EF919F918F912F9164
:100180000F900FBE0F901F9018951F920F920FB6F1
:100190000F9211248F939F93EF93FF9390914001BF
:1001A00080914101981769F0E0914101EF5FEF7193
:1001B000E0934101F0E0E050FF4F80818093C60062
:1001C00005C08091C1008F7D8093C100FF91EF91A8
:1001D0009F918F910F900FBE0F901F9018959C01CB
:1001E0008AB180668AB91092400110924101109242
:1001F00042011092430137FF04C082E08093C000A7
:100200003F773093C5002093C40088E98093C100F4
:1002100086E08093C200089590914201809143014D
:10022000981719F420E031E012C0E0914301EF5F2C
:10023000EF71E0934301F0E0E05EFE4F30812091EA
:100240004401922F80E0AC01430F511D9A01C90176
:100250000895282F909140019F5F9F7180914101E7
:100260009817E1F3E92FF0E0E050FF4F20839093DF
:1002700040018091C10080628093C1000895DC013B
:1002800015C0909140019F5F9F7180914101981727
:10029000E1F31196E92FF0E0E050FF4F20839093B7
:1002A00040018091C10080628093C1002C91222383
:1002B00041F70895AC0114C0209140012F5F2F71C8
:1002C000809141012817E1F3E22FF0E0E050FF4F69
:1002D0009083209340018091C10080628093C1008F
:1002E000FA014F5F5F4F9491992331F708951F9260
:1002F0000F920FB60F9211242F938F939F93EF932A
:10030000FF939091C8002091CE00E0918701EF5FAC
:10031000EF7180918801E81711F482E008C0892FFD
:100320008871E0938701F0E0EB59FE4F20838093C2
:100330008901FF91EF919F918F912F910F900FBEA7
:100340000F901F9018951F920F920FB60F921124C5
:100350008F939F93EF93FF939091850180918601F6
:10036000981769F0E0918601EF5FEF71E0938601E5
:10037000F0E0EB5BFE4F80818093CE0005C0809162
:10038000C9008F7D8093C900FF91EF919F918F915C
:100390000F900FBE0F901F9018959C011092850131
:1003A00010928601109287011092880197FF04C075
:1003B00082E08093C8003F773093CD002093CC003B
:1003C00088E98093C90086E08093CA0008959091DF
:1003D000870180918801981719F420E031E012C05C
:1003E000E0918801EF5FEF71E0938801F0E0EB5955
:1003F000FE4F308120918901922F80E0AC01430FA4
:10040000511D9A01C9010895282F909185019F5F80
:100410009F71809186019817E1F3E92FF0E0EB5B83
:10042000FE4F2083909385018091C9008062809364
:10043000C9000895DC0115C0909185019F5F9F71EF
:10044000809186019817E1F31196E92FF0E0EB5BBC
:10045000FE4F2083909385018091C9008062809334
:10046000C9002C91222341F70895AC0114C02091BA
:1004700085012F5F2F71809186012817E1F3E22F0C
:10048000F0E0EB5BFE4F9083209385018091C900E3
:1004900080628093C900FA014F5F5F4F9491992366
:1004A00031F70895089A84B5826084BD8EE187BDD6
:1004B0008AE090E090938E0180938D0110928C01E0
:1004C00010928B01EEE6F0E080818260808385B53A
:1004D000846085BD089590938E0180938D01109264
:1004E0008C0110928B01EEE6F0E0808182608083C7
:1004F00085B5846085BD08951F920F920FB60F9247
:1005000011248F939F9380918A01882321F082B1D7
:1005100091E0892782B980918B0190918C01892B80
:10052000A9F480918D0190918E01019790938E0195
:1005300080938D0184EF91E090938C0180938B01E7
:1005400080918A0191E0892780938A0180918B01B3
:1005500090918C01019790938C0180938B018091F5
:100560008D0190918E01892B29F480916E008D7FF1
:1005700080936E009F918F910F900FBE0F901F90F0
:10058000189581E18EBD0DB407FEFDCF8EB5E091CB
:100590008F011EBC0DB407FEFDCF2EB5922F80E05B
:1005A000F0E0EE0FFF1FE057FE4F918380838091B4
:1005B0008F01A82FB0E0FD01EE0FFF1FE057FE4FA7
:1005C0000190F081E02D1EBC0DB407FEFDCF8EB56D
:1005D00090E0E82BF92BAA0FBB1FA057BE4F119636
:1005E000FC93EE93089582EB84B92298299886E5CE
:1005F0008CBD8DB58EB5089583E08EBD0DB407FE1C
:10060000FDCF8EB580E88EBD0DB407FEFDCF8EB553
:1006100085E08EBD0DB407FEFDCF8EB5089580E058
:100620009FEF9EBD0DB407FEFDCF2EB58F5F8430CA
:10063000C1F708958EBD0DB407FEFDCF8EB50895A8
:1006400080E09FEF9EBD0DB407FEFDCF2EB58F5FFE
:100650008430C1F780E18EBD0DB407FEFDCF8EB5AD
:100660001EBC0DB407FEFDCF8EB50E942901089572
:1006700080E090E013C001962AEE8136920771F473
:1006800080E09FEF9EBD0DB407FEFDCF2EB58F5FBE
:100690008430C1F70E94200380E008951A99EBCFBF
:1006A00081E00895FF920F931F93E2E0FE2E00ED8C
:1006B00016E8FEBC0DB407FEFDCF8EB50EBD0DB421
:1006C00007FEFDCF8EB51EBD0DB407FEFDCF8EB566
:1006D0000E943803882369F772E0F72E00EB16EBCF
:1006E000FEBC0DB407FEFDCF8EB50EBD0DB407FEEA
:1006F000FDCF8EB51EBD0DB407FEFDCF8EB50E9499
:100700003803882369F762E0F62E00EC15E9FEBC99
:100710000DB407FEFDCF8EB50EBD0DB407FEFDCFA7
:100720008EB51EBD0DB407FEFDCF8EB50E943803F9
:10073000882369F752E0F52E00EA15EBFEBC0DB4F4
:1007400007FEFDCF8EB50EBD0DB407FEFDCF8EB5F5
:100750001EBD0DB407FEFDCF8EB50E943803882361
:1007600069F742E0F42E00EC15EFFEBC0DB407FE75
:10077000FDCF8EB50EBD0DB407FEFDCF8EB51EBDEF
:100780000DB407FEFDCF8EB50E943803882369F7AC
:1007900032E0F32E00EA15EFFEBC0DB407FEFDCFEC
:1007A0008EB50EBD0DB407FEFDCF8EB51EBD0DB4CA
:1007B00007FEFDCF8EB50E943803882369F71F918D
:1007C0000F91FF90089582E18EBD0DB407FEFDCF1D
:1007D0008EB51EBC0DB407FEFDCF8EB50E9429015B
:1007E0001EBC0DB407FEFDCF8EB50E9429010895F1
:1007F00082E08EBD0DB407FEFDCF8EB5E0918F0176
:10080000F0E0EE0FFF1FE257FF4FE491EEBD0DB495
:1008100007FEFDCF8EB5E0918F01F0E0EE0FFF1FD8
:10082000E357FF4FE491EEBD0DB407FEFDCF8EB54B
:100830000E94E30308950E94C10280918F0190E01D
:10084000019663E070E00E94540480938F010E943F
:10085000F803089582E08EBD0DB407FEFDCF8EB57E
:1008600080E48EBD0DB407FEFDCF8EB586E78EBD4C
:100870000DB407FEFDCF8EB50E94380381E18EBD19
:100880000DB407FEFDCF8EB51EBC0DB407FEFDCF27
:100890008EB50E9429011EBC0DB407FEFDCF8EB59A
:1008A0000E9429010895089597FB092E07260AD072
:1008B00077FD04D00CD006D000201AF47095619515
:1008C0007F4F0895F6F7909581959F4F0895AA1B45
:1008D000BB1B51E107C0AA1FBB1FA617B70710F02B
:1008E000A61BB70B881F991F5A95A9F7809590955D
:0A08F000BC01CD010895F894FFCF7C
:00000001FF
